:020000040800F2
:10000000A0070020F5010008D11F0008451E0008C8
:10001000491E0008971C0008CB25000800000000BE
:100020000000000000000000000000007121000836
:100030009B1C0008000000005920000885220008D1
:100040000F0200080F0200080F0200080F0200084C
:100050000F0200080F0200080F0200080F0200083C
:100060000F0200080F0200080F0200080F0200082C
:100070000F0200080F0200080F0200080F0200081C
:100080000F0200080F0200080F0200080F0200080C
:100090000F0200080F0200080F0200080F020008FC
:1000A0000F0200080F0200080F0200080F020008EC
:1000B000E92200080F0200080F0200080F020008E2
:1000C0000F0200080F0200080F0200080F020008CC
:1000D0000F020008052400080F0200080F020008A4
:1000E0000F0200080F0200080F0200080F020008AC
:1000F0000F0200080F0200080F0200080F0200089C
:100100000F0200080F0200080F0200080F0200088B
:100110000F0200080F0200080F0200080F0200087B
:100120000F0200080F0200080F0200080F0200086B
:1001300000F002F800F04FF80AA090E8000C8244AA
:100140008344AAF10107DA4501D100F044F8AFF287
:10015000090EBAE80F0013F0010F18BFFB1A43F0A5
:10016000010318470C2900002C290000103A24BF75
:1001700078C878C1FAD8520724BF30C830C144BF0C
:1001800004680C607047000000230024002500264E
:10019000103A28BF78C1FBD8520728BF30C148BFEA
:1001A0000B607047662902F01084002070471FB56D
:1001B0009DE8030000F086FF00F016FB040000201D
:1001C000002102F095FAE06000F020FC1FBD10B5A0
:1001D00000F085FC10BD00F0EDFC1146FFF7E7FFD5
:1001E00002F066FA00F0DCFE03B4FFF7F0FF03BC98
:1001F00001F0FAF80948804709480047FEE7FEE7A2
:10020000FEE7FEE7FEE7FEE7FEE7FEE7FEE7FEE7C6
:1002100004480549054A064B70470000892200083A
:1002200031010008A0010020A0070020A003002049
:10023000A00300200FB4044910B503AA029800F0EF
:10024000C1FA10BC5DF814FB9800002070B504469C
:1002500085690068C10601D5302600E02026C00768
:1002600007D070BDD4E9012130469047206A401C78
:1002700020626D1EF6D570BD70B5044685690078A4
:10028000C00707D170BDD4E9012120209047206A22
:10029000401C20626D1EF6D570BD2DE9F0474FF071
:1002A000000A89460446C0F820A02046E168884735
:1002B000002876D0252806D0D4E901219047206A6D
:1002C000401C2062F1E7E168204600258847C4F819
:1002D0001CA006460027C4F818A02A2E09D03046D4
:1002E00002F089F938B304EB8708303EC8F818608B
:1002F00019E059F8041B204604EB87029161E1687C
:100300008847012F064618D1E069002820DA25F039
:1003100020051DE0D8F8180000EB800006EB400037
:100320003038C8F818002046E1688847064602F0D1
:1003300062F90028EED1012F0AD02E2E08D12046D6
:10034000E16888477F1C0646022F45F02005C4DB84
:10035000A069002803DA404245F00105A061E807E2
:1003600001D025F01005B6B1A6F14100192802D838
:10037000203645F400654A463146204625604D4604
:10038000FFF710FF58B1012806D0ED1D25F007003A
:1003900000F1080989E704E005F1040985E7304622
:1003A0008AE7206ABDE8F08770477047704770475A
:1003B0002DE9FF4F0C461E464FF0FF378BB0D2E9B8
:1003C0000001DDF860800A908A46C1F30A5505B93C
:1003D0003D46002108464FF00000BAF1000F00F43E
:1003E000400005DA00EB80004FF4400101EA5000C4
:1003F0004FEA9059B9F1010F00DDB9460A9850EA69
:100400004A000ED044F61050A5F2FF3545432F1494
:10041000B8F1000F1ED07542291E1EDDC9F1000281
:100420001CE0B8F1010F4FF0000001D0302103E0D3
:10043000F24305E02154401CB042FBDB3046002271
:10044000002121540B99C1F80880C1E900200FB0A8
:10045000BDE8F08FBD1B6D1CDEE74A4600DA69423D
:1004600006A800F063FA06AB93E8070003AB83E845
:10047000070050460A9901F053F88DE80700A0F5EF
:1004800000501F3800900398002D09DD42F21F0133
:100490004A46084403A90390684601F0B2FA08E00E
:1004A000A0F500504A461F3803A90390684601F0A2
:1004B000BCFA8DE807000004000C03D04FF0FF30B9
:1004C000410800E01046B8F1000F03D0002200926E
:1004D00015461EE0751E05D400F08AF930326255CB
:1004E0006D1EF9D5B3460122084302D000227F1CBD
:1004F00004E02078302801D100227F1E002A0997CD
:1005000086D01DE0112D07DA00F072F93032625505
:100510006D1C50EA0102F5D1084302D00098C8B121
:100520000EE00021681E05E0235C625C63542254E7
:10053000401E491C8142F7DBAB46A81B401E0990B8
:10054000002004F80B000B98099AC0F80880C0E955
:10055000002B7CE711264FF0000859E72DE9F04FFA
:1005600088460446D21D22F0070191B0D1E900016E
:10057000CDE90A0102F02BF802460B98C00F01D01A
:100580002D2007E02068810701D52B2002E02021E3
:1005900001EAC000032A099001D0072A05DB0346BF
:1005A0004146204600F082F909E12078800601D515
:1005B000E06900E00620B8F1650F814606D0B8F189
:1005C000660F18D0B8F1670F70D131E00020B9F193
:1005D000110F009001DB112301E009F101030AAAC8
:1005E00001A90CA8FFF7E4FEDDE90C70002609F173
:1005F0000105834647E001204B4600904FF000473D
:100600000AAA01A90CA8FFF7D3FEDDE90DB00C99E9
:100610005D46002610B909F101000D18B9EB05007F
:1006200003D4C0F1FF3609F10105A5EB09002BE069
:10063000B9F1010F01DA4FF001090020B9F1110FF2
:100640000090484601DD112300E003460AAA01A9F3
:100650000CA8FFF7ADFEDDE90C704D460026834681
:10066000207800070AD4AB4500DA5D4601A8012DC9
:1006700004DD411911F8011C302907D04F4502DA79
:1006800017F1040F04DA012082460FE06D1EEEE739
:10069000002F02DCED1B3E4403E0781CA84200DD85
:1006A0007D1CB81B00F1010A4FF0004720780007BD
:1006B00003D4AA4501DB4FF0FF3A0021B7F1004F08
:1006C0000DF143088DF8431022D002202B23002F78
:1006D00001DA7F422D234FF00A0C011EA0F1010028
:1006E00000DC47B197FBFCF10CFB11720F46303276
:1006F00008F8012DF1E7A8F1010003702188090530
:1007000001D5452100E06521A0F1010800F8011C98
:1007100009980FA9A1EB0807FF1D00B1012041199D
:1007200001EBEA70A1693844081A401EA0612078E4
:10073000C00602D42046FFF789FD099828B1D4E904
:1007400001219047206A401C20622078C00622D5F3
:100750002046FFF77BFD1EE0002E04DBB34502DDE3
:1007600001A8805D00E03020D4E901219047206A93
:10077000401C2062761CAAF101005FEA000A0AD13F
:1007800000F032F8C0680168405CD4E9012190476C
:10079000206A401C2062281EA5F10105DCDC07E070
:1007A000D4E9012118F8010B9047206A401C20620F
:1007B000381EA7F10107F3DC2046FFF75DFD02209C
:1007C00011B045E6074B70B50D467B4400F05BF871
:1007D0000446284600F016F910B14FF0FF3070BD06
:1007E000204670BDC71E0000004870476001002011
:1007F00030B5B0F10A024FEA900E71F100034EEAF3
:10080000817EB0EB0E0061EB91014FEA101E4EEAC3
:10081000017E10EB0E0041EB11114FEA102E4EEA53
:10082000016E10EB0E0041EB11214FEA104E4EEA23
:10083000014E10EB0E0041EB1141401841F1000157
:100840004FEAD00040EA41704FEAD10110EB800539
:100850004FEA810444EA907444EB01046D1944EBBF
:100860000404521BA3414FF0000348BF0A3200D5D5
:1008700030BD401C41F1000130BD000001694A1C3F
:1008800002610878704700B58FB0CDE901310021D1
:10089000059105497944CDE9031011466846FFF7F3
:1008A000FCFC0FB000BD0000E5FFFFFF2DE9F041AB
:1008B0001F46044603260168072A01F4006004DB92
:1008C00008B116A505E016A503E008B115A500E0DE
:1008D00015A521F010002060A069C01EA0610FB115
:1008E000401EA0612046FFF7B1FC4FB1D4E90121C1
:1008F00038469047206A401C2062C01C206206E0F7
:10090000206AFAE7D4E9012115F8010B9047761E19
:10091000F8D22046FFF7B0FCBDE8F0814E414E0012
:100920006E616E00494E4600696E66002DE9F04723
:10093000814616468AB0324878440DC88DE80D00CD
:100940002F487844801C03AC0DC884E80D0041F6A4
:100950009B303722014491FBF2F0A0F1800502FBAD
:1009600010141B3C02D56442012000E00020DFF897
:1009700090A080460027FA44AAF1BA0A0DE0E007E9
:1009800009D03246684607EB47010AEB810101F0C6
:100990004CF88DE8070064107F1C002CEFD1184F35
:1009A0007F44A83F18E0E80714D007EB04100DF1CE
:1009B000180A90E80E008AE80E00C068F04201D1E3
:1009C00098190890324606A903A801F02EF803AB47
:1009D00083E807006D10641C002DE4D1324669469F
:1009E000B8F1000F03A802D001F00BF801E001F00C
:1009F0001CF8C9E90001C9F808200AB0BDE8F08771
:100A000010210000007B00F08000704710B54248C4
:100A1000542100F0D2FA4148542100F0CEFA404867
:100A2000542100F0CAFA3F493B483C4A3F4B08601A
:100A30003D490A603A491960531C0365481C10651A
:100A4000012008653B48344A39A1784400F00CFA8B
:100A500020B9384878440A3800F0A8FA37482F4AB5
:100A600035A1784400F000FA20B9344878440A38B7
:100A700000F09CFA32482A4A2FA1784400F0F4F999
:100A800020B92F4878440A3800F090FA40232248D1
:100A9000DC000021224600F0C4F920B1254878444A
:100AA000543800F083FA1D4822464023002100F00C
:100AB000B8F920B121487844543800F077FA184842
:100AC00022461023002100F0ACF9002806D01C4873
:100AD0007844BDE81040563800F068BA10BD1048A0
:100AE00070B5006D20F001040B4800F033FA0B489C
:100AF00000F030FA0A4800F02DFA09E0206D20F0ED
:100B00000105204600F026FA204600F078F82C4631
:100B1000002CF3D170BD000044000020980000209C
:100B2000EC000020380000203C00002040000020A5
:100B30007200000016200000770000000220000074
:100B4000EE1F00000EB5CDE9000100F02DFC029073
:100B500069460120ABBE0EBD08B569460090022073
:100B6000ABBE08BD1FB58DE8070069460520ABBECA
:100B700004B010BD1FB58DE80F0069460620ABBE5E
:100B8000F6E708B5694600900920ABBE08BD1CB564
:100B9000CDE9000169460A20ABBE1CBD704708B50F
:100BA000694600900C20ABBE08BD000000487047AD
:100BB000400100207546FFF7F9FFAE460500694683
:100BC000534620F00700854618B020B5FFF720FBFC
:100BD000BDE820404FF000064FF000074FF000083E
:100BE0004FF0000B21F00701AC46ACE8C009ACE8BF
:100BF000C009ACE8C009ACE8C0098D46704770B5C3
:100C00000446051F00F042FA0068002C14BF446837
:100C100070BD002C18BFAC423CBF20466468F8D3BE
:100C200001680A18AA4218BF456003D12A68054620
:100C30001144016028684119A1421CBF6C6070BD5D
:100C40006168696021680844286070BD2DE9F0473B
:100C500005460C46C86820F4201040F48000C860A7
:100C6000800602D5084600F05EFBE06841F2820192
:100C70004FF0FF390140022903D0204600F0FCFA72
:100C8000B5E000F42041B1F5004F0FD1C00306D507
:100C90006168E06A884200D80846606006E0206922
:100CA000E06260606069FFF77AFFA061A0680022DF
:100CB000EEB200280DDAE1688B050AD4C043A060CB
:100CC00041F490302260E0606068411C6160067011
:100CD000A5E0E0689046226040F40050E0602069A2
:100CE00068BB6069FFF74DFF012704F12405A0B13F
:100CF000A08910F4407F08D0E06900F012FA20616A
:100D000018B1E06840F4006016E0E7612561E06832
:100D100020F4407040F480600EE0E06900F001FAD9
:100D200000282061F1D0E06840F4006010F4407FBA
:100D3000E06002D140F48070E06020696060E068AB
:100D400025696FF0010AC1051FD56168E06A884214
:100D500000D80846411B04D02246284600F096FAE7
:100D6000F0BBE068010203D5E562C4E9015854E034
:100D7000691CE1626160E16940F48030491EC4E9A8
:100D8000021030462E70BDE8F087010202D500F453
:100D900080320AE06068411C61600670E0680A2EDB
:100DA00040F48030E06006D00022E16A6068814251
:100DB00003D90B4602E00122F7E70346A7895B1B34
:100DC0007F0503D4E7699F4200DDE2B1814200D88C
:100DD0000146E5620F1AC4E90158002B09DD00E065
:100DE00005E022461946284600F050FA08B1484668
:100DF000C9E747B1A069E5626560C01BA061E06812
:100E000040F01000E060E068000208D56168A06969
:100E1000E562491B08446560A0615046B3E730466F
:100E2000B1E770B5C468A50713D0650211D4B2F557
:100E3000807F09D0B2F5007F06D0B2F5806F08D16F
:100E4000012300F1240106E05D1E6FF07F46B542EC
:100E500001D3012070BD0161C361416024F4706160
:100E60001143C160002070BD2DE9F0410C460746DA
:100E70001646104600F06EF82078611C61280AD0F2
:100E8000722802D077283CD102E00125002405E039
:100E90000225042402E0082448F2020511F8010B9F
:100EA0002B2806D0622809D011F8010C74280AD02A
:100EB0000BE045F0030544F00204EFE745F00405BC
:100EC00044F00104EAE744F0100438462146FFF7F5
:100ED00039FE411C15D00021316171604FF4007161
:100EE000F560F1617061200704D5304602220021CF
:100EF00000F046F9306D40F0010030653046BDE845
:100F0000F0810020FBE72DE9F0410D460646104C2C
:100F1000206DC10704D0410804D020F00104F7E798
:100F200022460EE0542000F0FCF807000ED0206DA1
:100F300047F00101084354212065384600F03DF890
:100F40003A4629463046BDE8F0418DE70020D6E715
:100F5000440000202DE9F04704464FF000094FF00F
:100F6000FF37C568D4E90486A80707D0204600F0FB
:100F7000B7F93046FFF7F0FD002802DA3846BDE841
:100F8000F087280502D54046FFF739FE4C21204660
:100F900000F013F8206D20F0010020654846EEE7D0
:100FA0000446AFF300802046FFF71EF910B500F0AD
:100FB000E1F9BDE8104000F0D7B94FF0000200B5EC
:100FC000134694469646203922BFA0E80C50A0E86C
:100FD0000C50B1F12001BFF4F7AF090728BFA0E81A
:100FE0000C5048BF0CC05DF804EB890028BF40F8E6
:100FF000042B08BF704748BF20F8022B11F0804F28
:1010000018BF00F8012B70474FF0013C50F8042B3B
:1010100051F8043B9A4221D1A2EB0C03934313EA0B
:10102000CC1317D150F8042B51F8043B9A4215D138
:10103000A2EB0C03934313EACC130BD150F8042B0F
:1010400051F8043B9A4209D1A2EB0C03934313EAF3
:10105000CC13DBD04FF00000704700BFD01A01BAAC
:10106000B1FA81F101F0180122FA01F0CB40C1F18F
:101070002001DBB2C0B2C01A2CFA01F3D11A91439D
:1010800011EAC311E6D1704770470000004870476D
:1010900048010020704770477047704738B50446D4
:1010A0000A4600206946AFF30080002808BF38BD1B
:1010B00002460099204600F0A4F9012038BD012025
:1010C00000F0F3B9F8B5AFF30080054600200C46F8
:1010D000102000BF0646A819A0420DD93246694625
:1010E0000020AFF30080070008BF00F0DEF9009891
:1010F000A04218BF0546C419FFF7C8FF05600746A0
:10110000F01D20F007004619284600F073F9B4429C
:1011100008BFF8BDA21B31463868BDE8F84000F0B2
:1011200070B970B50646FFF7B1FF056806F10B0010
:1011300020F00704B4429CBF002070BD2B466A68B3
:10114000BAB11068A04210D304F1080188423CBF34
:101150005068586007D35168101941601168091B25
:10116000016058601460101D70BD13465268002A5B
:10117000E7D121462846FFF791FF0028DED170BD58
:101180002DE9F041044616460D464769007B80076D
:101190002ED03846FFF7F5FC50BB3EB3012E02D0EF
:1011A000022E25D104E0204600F045F905441DE05B
:1011B0003846FFF7F4FCE168002841F01001E160D7
:1011C00005DA204600F058F80120BDE8F081C90397
:1011D0000BD56268E16A914200D81146A2691144B8
:1011E0002269891A814200DD08460544002D01DA92
:1011F0000220EAE7E16A6068E268814206D2910370
:10120000E06203D522F4003141F01002A669002704
:10121000AE4213DCE16A814201D90B4600E003468D
:1012200003EB060C2369ACEB030CAC4506DD8142F5
:1012300001D98C4600E084469C4505D1A760276013
:1012400042F02000A5620DE0AD1BE669AE1B8142B5
:10125000A66000D90846C01A281A20605819606094
:1012600022F0200003490840E060002084F8487024
:10127000ABE70000BFCFD7FFC16821F4001141F0F8
:101280008001C16000218160016070472DE9F04755
:10129000814614460E464FF0FF383248D5685769EC
:1012A000054209D03846A169FFF771FC002811DB1F
:1012B0002C48C0430540E5602B4632464946384637
:1012C000FFF750FCA16920F00042B21A1144002837
:1012D000A16103D02046FFF7CFFF4046BDE8F0876D
:1012E00070B504460569C06A6168884200D808463E
:1012F000E16821F42011E160C90312D5A84208D0A9
:101300002246411B2846FFF7C1FF10B14FF0FF30C6
:1013100070BD0020E562C4E90150E06820F480302F
:10132000E060002070BD10B50446C06820F02000C9
:10133000E060A16AA06988420DD02046FFF7D0FF87
:10134000E06820F4405040F01000E060A06AA06126
:101350002069E062606044F24001E0688843E06038
:1013600010BD000010000200002801D000F03CB8C1
:101370007047000010B5014602A000F07DF8012082
:1013800010BD000053494752545245443A2052651B
:101390006469726563743A2063616E2774206F70AC
:1013A000656E3A200000000010B5431C02E010F802
:1013B000011B71B18107FAD14FF0013202C88C1ABA
:1013C0008C4314EAC211F9D0C01A0A0603D0C01E19
:1013D00010BDC01A10BD0A0401D0801E10BD090244
:1013E000FCD0401E10BD000001491820ABBEFEE736
:1013F0002600020000210160C0E9011070471020A2
:101400007047034640688C46002818BF88423CBF9E
:1014100003464068F8D318681844884207D00CF196
:10142000030020F00700001D411A521A0146081D52
:101430000A60FFF7E4BB10B50146C268900703D00D
:10144000900607D5886A0AE000F03EF801210160A5
:10145000881E10BD8B69486818440B69C01A91F842
:1014600048301BB191F84910401A10BD1103FCD54A
:101470000028FADD401E10BD70B505460C460A2056
:1014800000E06D1C00F018F835B128780028F8D17C
:1014900002E0641C00F010F814B120780028F8D1A4
:1014A000BDE870400A2000F007B810B500F010F851
:1014B000BDE81040FFF758BF08B569468DF8000039
:1014C0000320ABBE08BD000000487047400100206B
:1014D00010B5012805D0002103A0FFF7CDFF0120A2
:1014E00010BD09A1F8E7000053494752544D454D3E
:1014F0003A204F7574206F662068656170206D65B5
:101500006D6F7279000000003A2048656170206DAF
:10151000656D6F727920636F7272757074656400A7
:101520005FEA400C08BF91F0000F4FEA8C234FEAAE
:10153000C12243EA51514FEA1C5018BF00F5F04058
:101540004FEA300018BF41F000415FEA6C5C00F0E8
:101550002980BCF1FF3F08BF40F080407047130C6A
:1015600006BF12044FF0100C4FF0000C130E04BF16
:1015700012020CF1080C130F04BF12010CF1040C41
:10158000930F04BF92000CF1020CD30F04BF520062
:101590000CF1010C11464FF00002A0F11F00A0EB6E
:1015A0000C00704711F0004F08BF704731F0004148
:1015B0003FF4D5AF0B0C06BF09044FF0100C4FF0F1
:1015C000000C0B0E04BF09020CF1080C0B0F04BF3A
:1015D00009010CF1040C8B0F04BF89000CF1020C03
:1015E000CB0F04BF49000CF1010CCCF12003A0EBA0
:1015F0000C0022FA03F302FA0CF241EA030100F1B3
:101600000100704720F07F4C80EA030023F07F4701
:10161000ACEB070303F57C5300F0004003F1FF033C
:101620002DE980494FEA154B09B44FEA144325EAE6
:101630000B4E24EA03480FF2042606EB1327490851
:101640003E785FEA320203FB0667C7F5000707FB37
:1016500006F64FEA54374FEAD64606F1020607FB74
:10166000066CCCF1005C4FEA1C472CEA074C07FBE8
:1016700006F40CFB06F504EB15464FEA961634BF4C
:1016800000204FF000404FEAD13706FB07FC4FEA3D
:101690001C4C0CFB0BF7D21B03FB0CF761EB070197
:1016A0000CFB0EF7B0EB074072EB17420CFB08F790
:1016B00034BFA2EB0742B2EB074261EB17414FEA9E
:1016C0000C444FEA910706FB07FC4FEA1C4C0CFB4D
:1016D0000BF7B0EBC74072EB573203FB0CF734BF8C
:1016E000A2EBC742B2EBC74261EB57310CFB0EF7DE
:1016F000B0EBC70072EB57720CFB08F734BFA2EBDC
:10170000C702B2EBC70261EB5771039F4FEA8161D9
:1017100041EA921104EBCC044FEAD1374FEA8262DE
:1017200006FB07FC42EA90124FEA80604FEA1C4C2D
:101730000CFB0BF7D21B03FB0CF761EB07010CFB57
:101740000EF7B0EB074072EB17420CFB08F734BF03
:10175000A2EB0742B2EB074261EB17414FEA8C550F
:101760004FEA910704EB9C2406FB07FC4FEA1C4C54
:101770000CFB0BF7B0EBC74072EB573203FB0CF7D7
:1017800034BFA2EBC742B2EBC74261EB57310CFB4F
:101790000EF7B0EBC70072EB57720CFB08F734BFC3
:1017A000A2EBC702B2EBC70261EB577115EB4C25F8
:1017B0004FEA816141EA92114FEA82624FEAD137E2
:1017C00042EA901206FB07FC44F100044FEA8060F5
:1017D0004FEA1C4C0CFB0BF7D21B03FB0CF761EB25
:1017E00007010CFB0EF7B0EB074072EB17420CFB46
:1017F00008F734BFA2EB0742B2EB074261EB174197
:1018000015EB1C154FEA813141EA92414FEA8232D1
:1018100042EA90424FEA80304FEA0C7644F10004ED
:1018200048EA03434EEA0B484FF0000EB2EB080CB7
:1018300071EB030724BF624639464EEB0E0E4FF0A4
:10184000000B0018524149414BEB0B0BB2EB080C5B
:1018500071EB03077BF1000B24BF624639464EEB68
:101860000E0E4FF0000B0018524149414BEB0B0B91
:10187000B2EB080C71EB03077BF1000B24BF62464F
:1018800039464EEB0E0E51EA020718BF46F001062C
:1018900016EB0E7655F1000254F1000103D5BDE8B8
:1018A0008901BDE80088BDE88901B619BDE8004896
:1018B000524141EB0101A3F10103704780807F7E1B
:1018C0007D7C7B7A797877767675747372717170B6
:1018D0006F6E6E6D6C6C6B6A6A6968686766666568
:1018E0006464636362616160605F5F5E5E5D5D5CF6
:1018F0005C5B5B5A5A595958585757565655555567
:101900005454535352525251515050504F4F4F4EC6
:101910004E4D4D4D4C4C4C4B4B4B4A4A4A49494914
:101920004848484747474746464645454544444456
:10193000444343434342424242414141002B26D467
:10194000770021D01CB54FEA370703B44FF01000E1
:101950004FF010014FF000000FBC0BF1010BBDE880
:101960001040BBF1010F08BF5FEA170722BF12F159
:10197000010211F101014FF0004143F1000300F0B9
:10198000004043EA00007047F9D35708DAE746EA17
:10199000064613F1400F4FEA16461FDD13F1200FE4
:1019A000DFBF16430A46002120335B42C8D0C3F193
:1019B000200746EA064602FA07F74FEA164646EAC5
:1019C0000706C3F1200722FA03F201FA07F721FA0A
:1019D00003F14FF0000342EA0702B1E746EA0206CC
:1019E00046EA06464FEA164646EA0106BCBF46EA04
:1019F0000646360C4FF000034FF000024FF0000196
:101A00009EE72DE9C048934630B491E8380007C8F6
:101A100031EA400C48BF34EA430C03D5FFF7F2FD2E
:101A2000FFF78CFFF0BCBDE800882DE9C048934665
:101A300030B491E8380007C810F0804F08BF13F0A9
:101A4000804F03D100F005F8FFF778FFF0BCBDE848
:101A5000008820F07F4780EA030023F07F4C07EBEB
:101A60000C03A3F57C5300F00040A3F1FE0392F0B9
:101A7000000F00F0B38095F0000F00F077802DE9A3
:101A800001494FEA11404FEA144621EA004800FBA1
:101A900006FC24EA064708FB06F607FB08F800FBED
:101AA00007F718EB06484CEB164C4FEA124B18EBB5
:101AB00007484FEA15464CEB174022EA0B4E0BFB4A
:101AC00006FC25EA06470EFB06F607FB0EFE0BFB9F
:101AD00007F71EEB064E4CEB164C4FF000061EEBC4
:101AE000074E4CEB174B18EB0B0840F1000018EBBE
:101AF0000E0B58EB000840F100008F1A4FF0000168
:101B00003CBFC943661B14BFB5EB040C00213CBFAE
:101B1000C943F61B4FEA17444EEA8E0E27EA0445E6
:101B20004FEA1C4704FB07622CEA074C05FB07F74A
:101B30000CFB05F604FB0CFC16EB074642EB1742C8
:101B400016EB0C4642EB1C421BEB060658EB02025E
:101B5000414146EA9E0601D5BDE80189B6195241C8
:101B600041EB0101A3F10103BDE801894FEA1445EE
:101B70004FEA114724EA054621EA074C05FB07F422
:101B800006FB07F70CFB06F105FB0CFC11EB07410C
:101B900044EB17444FEA124711EB0C4144EB1C4451
:101BA00022EA074C05FB07F206FB07F70CFB06F6DB
:101BB00005FB0CFC16EB074642EB174216EB0C46F6
:101BC00042EB1C456A1854F1000148BF7047B61932
:101BD000524141EB0101A3F10103704795F0000F61
:101BE00037D04FEA11424FEA144721EA024624EA6D
:101BF000074C02FB07F106FB07F70CFB06F402FBA0
:101C00000CFC14EB074441EB17414FEA154714EB6A
:101C10000C4441EB1C4125EA074C02FB07F506FB8F
:101C200007F70CFB06F602FB0CFC16EB074645EB30
:101C3000174516EB0C4645EB1C42121951F10001F9
:101C400048BF7047B619524141EB0101A3F10103AE
:101C500070474FEA14454FEA114724EA054621EA46
:101C6000074C05FB07F106FB07F70CFB06F24FF0EC
:101C7000000605FB0CFC12EB074241EB174112EB8F
:101C80000C4251EB1C4148BF7047921841EB0101D7
:101C9000A3F10103704700BFFEE7704710B5402174
:101CA000184800F0CBF84021164800F0C9F814207D
:101CB00000F0CAFC4021134800F0C0F800BF8021AA
:101CC000104800F0B2F80028F9D000204FF0804111
:101CD000888400BF80210B4800F0A7F80128F9D0C4
:101CE0004FF08040808C084908600846006800F08A
:101CF00009FE0446054900F043FD05490860084611
:101D0000006810BD000C0140340000200000684253
:101D1000300000202DE9F041024600250026002079
:101D200000230024002791F803C00CF00F0591F860
:101D300003C00CF0100CBCF1000F03D091F802C0EE
:101D40004CEA050591F800C0BCF1000F31D01468D1
:101D500000202BE04FF0010C0CFA00F3B1F800C0AA
:101D60000CEA03069E4220D183004FF00F0C0CFAC0
:101D700003F7BC4305FA03FC4CEA040491F803C0E2
:101D8000BCF1280F06D14FF0010C0CFA00FCC2F890
:101D900014C00AE091F803C0BCF1480F05D14FF020
:101DA000010C0CFA00FCC2F810C0401C0828D1D36A
:101DB0001460B1F800C0BCF1FF0F34DD546800209E
:101DC0002EE000F1080C4FF0010808FA0CF3B1F80E
:101DD00000C00CEA03069E4221D183004FF00F0C95
:101DE0000CFA03F7BC4305FA03FC4CEA040491F82F
:101DF00003C0BCF1280F05D100F1080C08FA0CF85B
:101E0000C2F8148091F803C0BCF1480F07D100F16B
:101E1000080C4FF0010808FA0CF8C2F81080401CBA
:101E20000828CED35460BDE8F081024600209368B4
:101E30000B400BB1012000E000207047416170476A
:101E40000161704700BFFEE700BFFEE700B585B047
:101E50000121082000F012F90121084600F0FEF8E7
:101E60004020ADF8100010208DF8130003208DF8ED
:101E7000120004A91D48FFF74DFF8020ADF81000A7
:101E800028208DF8130003208DF8120004A91748AC
:101E9000FFF740FF4CF24F30ADF804004720ADF89B
:101EA00000000020ADF80600ADF8020069464FF0D2
:101EB000804000F055FA01221146900700F046FAE2
:101EC0001C208DF80C0001208DF80D0000208DF8ED
:101ED0000E0001208DF80F0003A800F07BF801210F
:101EE000880700F016FA05B000BD0000000C0140A4
:101EF00008B50121102000F0C1F810208DF8030072
:101F00004002ADF8000003208DF802006946044845
:101F1000FFF700FF4FF400510148FFF791FF08BDA4
:101F20000010014000B587B00121042000F0A6F8A0
:101F30000121880300F0A2F818208DF81B004FF44F
:101F40000070ADF8180001208DF81A0006A91E488F
:101F5000FFF7E0FE04208DF81B000002ADF818002A
:101F600001208DF81A0006A91748FFF7D3FE4FF499
:101F7000165002900020ADF814000C20ADF81200AD
:101F80000020ADF81000ADF80E00ADF80C0002A96D
:101F90000E4800F0A5FA01210C4800F045FA012294
:101FA00040F22551094800F075FA25208DF804000B
:101FB00001208DF807008DF805008DF8060001A8B6
:101FC00000F008F807B000BD0008014000380140EB
:101FD0007047000070B5002100230F22C47804B3BD
:101FE000154C246804F4E064C4F5E064210AC1F1EE
:101FF0000403CA40447804FA03F18478144021436E
:1020000009010E4C0678A155047804F01F0501243F
:10201000AC4005786D11AD0005F1E025C5F8004133
:1020200009E0047804F01F050124AC40044D067853
:10203000761145F8264070BD0CED00E000E400E0AC
:1020400080E100E002490143024A1160704700004C
:102050000000FA050CED00E07047000029B1064AC7
:10206000D2690243044BDA6104E0034AD269824335
:10207000014BDA61704700000010024029B1064AA6
:1020800092690243044B9A6104E0034A92698243D5
:10209000014B9A61704700000010024030B50021EA
:1020A0000022002400232D4D6D6805F00C0121B1A4
:1020B000042905D0082923D105E0294D056022E037
:1020C000274D05601FE0254D6D6805F47012234D06
:1020D0006D6805F48034022505EB92421CB9214D50
:1020E000554305600BE01D4D6D6805F400351DB1CD
:1020F0001C4D5543056002E0194D5543056002E053
:10210000174D056000BF00BF144D6D6805F0F0016C
:102110000909154D6B5C0568DD4045600F4D6D6824
:1021200005F4E061090A104D6B5C4568DD4085608F
:102130000A4D6D6805F46051C90A0B4D6B5C45682A
:10214000DD40C560054D6D6805F44041890B074DC4
:102150006B5CC568B5FBF3F5056130BD001002404E
:1021600000127A0000093D0018000020280000201D
:10217000704710B500F002F810BD00000CB500204B
:10218000019000903348006840F480303149086085
:1021900000BF3048006800F4003000900198401CF7
:1021A0000190009818B90198B0F5A06FF1D12948B5
:1021B000006800F4003010B10120009001E0002020
:1021C00000900098012843D12348006840F0100097
:1021D000214908600846006820F0030008600846AE
:1021E000006840F0020008601A48406819494860D9
:1021F0000846406848600846406840F4806048608F
:102200000846406820F47C1048600846406840F466
:10221000E81048600846006840F08070086000BF21
:102220000C48006800F000700028F9D009484068A8
:1022300020F00300074948600846406840F002006B
:10224000486000BF0348406800F00C000828F9D13E
:102250000CBD00000010024000200240042808D1FC
:102260004FF0E021096941F004014FF0E0221161D3
:1022700007E04FF0E021096921F004014FF0E0226E
:10228000116170477047000010B51348006840F0B6
:1022900001001149086008464068104908400E498D
:1022A0004860084600680E4908400B490860084627
:1022B000006820F4802008600846406820F4FE0092
:1022C00048604FF41F008860FFF753FF4FF0006035
:1022D0000449086010BD0000001002400000FFF833
:1022E000FFFFF6FE08ED00E010B50121880700F0C1
:1022F0001CF820B104480068401C03490860012113
:10230000880700F003F810BD2C000020CA430282A9
:10231000704721B1028842F00102028004E0028885
:102320004FF6FE731A400280704730B50246002017
:1023300000230024158A05EA0103958905EA0104B2
:1023400013B10CB1012000E0002030BD1AB1838927
:102350000B43838102E083898B43838170470000B4
:10236000002202881D4B98420ED01D4B98420BD084
:10237000B0F1804F08D01B4B984205D01A4B9842C1
:1023800002D01A4B984204D14FF68F731A404B88F3
:102390001A43174B984207D0164B984204D04FF679
:1023A000FF431A40CB881A4302808B8883850B88B1
:1023B00003850A4B98420BD0094B984208D00E4B2C
:1023C000984205D00D4B984202D00D4B984201D156
:1023D0000B7A03860123838270470000002C0140A2
:1023E000003401400004004000080040000C0040A0
:1023F0000010004000140040004001400044014033
:102400000048014010B540F22551064800F018F888
:1024100038B1044800F0D0F8C4B22146014800F0B9
:10242000D0F810BD0038014021B1828942F4005239
:10243000828104E082894DF6FF731A4082817047E1
:1024400070B50246002400230025002040F66A16DD
:10245000B14200D100BFC1F3421501F01F030126B4
:1024600006FA03F3012D02D19689334006E0022DCE
:1024700002D1168A334001E0968A33400C120126BD
:1024800006FA04F41688344013B10CB1012000E0C0
:10249000002070BDF0B50346002400260025002072
:1024A00040F66A17B94200D100BF1846C1F3421482
:1024B00001F01F06012707FA06F5012C01D10C30A7
:1024C00004E0022C01D1103000E014301AB107688A
:1024D0002F43076002E00768AF430760F0BD0000CC
:1024E0002DE9F04786B005460E460024A24600BFFF
:1024F000A1460027B08900B100BF2F462C8A4CF6B8
:10250000FF700440F08804432C82AC894EF6F3102F
:102510000440B08831890843718908430443AC8181
:10252000AC8A4FF6FF400440B0890443AC8201A856
:10253000FFF7B4FD1F48874202D1DDF810A001E08B
:10254000DDF80CA0A88900F4004040B10AEBCA00F5
:1025500000EB0A1031684900B0FBF1F807E00AEB24
:10256000CA0000EB0A1031688900B0FBF1F8642062
:10257000B8FBF0F004012009642101FB1089A8894F
:1025800000F4004040B1322000EBC900B0FBF1F094
:1025900000F00700044308E0322000EB091064213A
:1025A000B0FBF1F000F00F0004432C8106B0BDE851
:1025B000F08700000038014001468888C0F3080019
:1025C0007047C1F308028280704700BFFEE74900F0
:1025D00050EAC12018BF04204A0D18BF40F0010086
:1025E00040F2FF72B2EB515F08BF40F002000128D9
:1025F00008BF0520704730380A2801D201207047F3
:102600000020704710B56FF00400FFF727FE0A485E
:1026100000680A49B0FBF1F00949087008460078E3
:1026200000EB4001C1EBC0104FF6FF7101EAC000A2
:102630000449088010BD00000000002000127A004C
:1026400014000020160000200146114A12784A4367
:102650004FF0E0235A6100229A611A46126942F053
:1026600001021A6100BF4FF0E022106900F0010280
:102670001AB100F48032002AF5D04FF0E02212693E
:1026800022F001024FF0E0231A6100229A617047A4
:10269000140000208A68002A01DCFEF7D7BA521E17
:1026A0008A604A68C0B2531C4B60107070470000CB
:1026B0004FF4A060FFF7C6FCFFF71AFCFFF7A2FF7C
:1026C000FFF730FCFFF7C2FB0CE0FFF7E7FA064626
:1026D000304600F029F8044622460B4602A0FDF7DA
:1026E000A9FD00BFF1E700002531306600000000C1
:1026F00010B500290AD00878002807D0054878448A
:10270000FEF782FC002801D0002010BD024878446A
:1027100010BD0000920300008A0300000808A0F525
:1027200000114FEA3101704743004FEAD30C4FEAE2
:102730003C0C43401FBF40070CF1605113F0FE4FAB
:1027400070471CF0006F03D100200CF0004170476F
:102750000CF0004343EA507010B540EACC0000F0A2
:10276000E9F800BF000000924FEA0001FFF7D6BF72
:102770004FF000414FF00000A1F50021704700002C
:102780004FF47F0C1CEAD0121EBF1CEAD11392EA50
:102790000C0F93EA0C0F00F0858090EA010F48BF00
:1027A00042F4807240F4000C41F400002CF07F41B0
:1027B00020F07F4000B58142A2EB03020FF2081C1B
:1027C000ACEB504EC0F100009EF800E04FEA4E0E18
:1027D00000FB0EFC38BF49004FEA2C1C02F5FA0240
:1027E0000CFB0EF34FEACE1E4FEA112C4FEAC1212B
:1027F0000EEB635E42EB22420EFB0CFC4FEA1C53D5
:1028000000FB03114FEA112C4FEA01310EFB0CFCC7
:102810004FEADC4C00FB0C11C14228BF09184CEBFD
:1028200003335DF804EB10EB410143EBC250B2F50A
:102830007C0F38BF704729D512F0F00F1CBF00F194
:10284000C04000F000407047008182838485868705
:1028500088898B8C8D8E8F919293959697999A9C5F
:102860009D9FA0A2A3A5A7A8AAACAEB0B2B3B5B7CE
:10287000B9BCBEC0C2C5C7C9CCCED1D4D7D9DCDFA4
:10288000E2E6E9ECF0F3F7FAFE0000004FEA400C54
:102890000CF1807CBCF17E4F28BF7047B0F1C04086
:1028A00000F08EB890EA010F0CEAD11348BF42F451
:1028B0008072624538BF634507D213F47F0F16D08C
:1028C00080EA010000F00040704710B500F032F8D7
:1028D000097EFC3E00F005B880EA010000F00040EF
:1028E000704780EA010000F0004000F069B812F47F
:1028F0007F0F04BF0248704780EA010000F060B813
:102900000000C07F10F0004148BF4042B0FA80F3A1
:1029100010FA03F2C3F19D030BD051EAC35101EB4E
:102920001220530638BF704700F1010008BF20F0A5
:10293000010070470EF1020E2EF0030E5EF8044BFC
:10294000244204D44FEA4102B2F17F4F11D84FEA3A
:102950004003B3F17F4F0CD80ED14FEAD07CB2F1D7
:102960007F4F0CEB4C0C0CF1020C08BF4CEBD17CF4
:1029700004E04FF0080C01E04FEAD17C0CEB4C0373
:1029800024FA03F404F00704B4F1040C06D20EEBAD
:10299000840CBDE810404CF0010C6047DFE80CF0FF
:1029A000070802024FF00040A0F5800010BD084665
:1029B000420018BFD2F1807288BF00F0004010BD05
:1029C000FF2141EAD050C0057047FDF7C7BD0000A8
:1029D00002400000000000A00000000005400000D0
:1029E000000000C8000000000C4000000000409CF7
:1029F00000000000194000000020BCBE00000000E4
:102A000034400000BFC91B8E00000004B540000028
:102A1000504BCFD06607E2CF010000006C410000B0
:102A20003E8251AADFEEA73401000000D942000027
:102A3000DCB5A0E23A301F97FFFFFFFFB44500006E
:102A4000FD25A0C8E9A3C14FFFFFFFFFFF3F000026
:102A50000000008000000000FF3F00000000008038
:102A6000000000003A7474003A7474003A74740000
:102A7000AC2A000800000020440000006C0100089F
:102A8000F02A0008440000205C07000088010008CC
:102A90001C00000043000000F8FFFFFF0C000000D6
:102AA0000E0000000F0000002E00000000A24A04EB
:102AB00000000000000000000102030406070809EE
:102AC00000000000000000000102030401020304F2
:102AD00006070809020406080000000000000000C4
:102AE00000000000000000000000000000000000E6
:04000005080001F5F9
:00000001FF
